:100000000C943E0018950000189500000C94BB005D
:10001000189500001895000018950000189500002C
:10002000189500001895000018950000189500001C
:10003000189500000C94CB0018950000189500004E
:1000400018950000189500001895000018950000FC
:100050000C94A70018950000189500001895000052
:1000600018950000189500001895000018950000DC
:100070001895000018950000189500008FEF8DBFAF
:10008000C8EDE0EC4E2E80E18EBFD0E1F0E15F2EB6
:10009000A89584B7082E877F84BF88E1992780932D
:1000A000600090936000EEEFFFE0A0E0B1E08827F1
:1000B0008D933197E9F787E08093C40080E08093C7
:1000C000C50088E18093C10066248AEA809301011B
:1000D0008AEA809302018DE28093030184ED80938C
:1000E00004018AEA8093060180E080934101559AD9
:1000F00000E80093610000E00093610053D0229A71
:100100002A9A2298809169008F7C8062809369008E
:10011000EA9A80E0809380008CE080938100809157
:100120008100887F8093810080E090E0909385003B
:10013000809384008FEF9CE29093890080938800E5
:1001400044D04ED0A9D0B7D078940C94A5002F936A
:100150003F932FB72F93D4D02F912FBF3F912F9143
:1001600018952F933F932FB72F932F912FBF3F9128
:100170002F91089508952F933F934F935F932FB737
:100180002F937AD047FD9FD02F912FBF5F914F9132
:100190003F912F91189570D0EA9A58D088D05AEA9A
:1001A00078D0189500E00093C50007E00093C400E4
:1001B00007E008E10093C10006E00093C2007091DF
:1001C000C10070687093C1000895279A2698259AF7
:1001D000249A2F9A2E9A2D9A2C9A0E949D01089566
:1001E000EEE7F3E00E9489010E94900149D08AEF76
:1001F00090E00E94AC0140E857ED30D042E859E071
:100200002DD046EA50E42AD046EC5FEF27D044E9EF
:1002100050EA24D042EC5CEA21D04AEC51E81ED0EE
:100220004EEC54ED1BD044EC53E818D048E950E5AF
:1002300015D04CEC57E112D040EE50E00FD048EC16
:1002400050E00CD040EC50EC09D008955D9B02C00A
:100250005D9902C05D9A01C05D9808952C984EBDCD
:1002600006D04EB55EBD03D05EB52C9A08950090C1
:100270004D0007FEFCCF089540E050E0EFDF089509
:100280004EEF50E0EBDF089540EB50E0E7DF08D0A1
:10029000089548EBE3DF08954EEC54EDDFDF089559
:1002A0004AEC51E8DBDF4AEC53E8D8DF089542E836
:1002B00059E3D4DF089542E859ECD0DF089542E8CD
:1002C00051E0CCDF089500914101053000905F00BE
:1002D00002FE0CC0039500934101A1E0B1E00A9534
:1002E000A00F00E0B01F5C91D4DF0895A5E0B1E05D
:1002F0002C912093C60080E080934101DCDF0895BB
:100300003091C600A5E0B1E03C93D1DF5AEAC1DFED
:1003100008950E94BB01802D11F005D0FACF0895F9
:100320008DE001D08AE00090C00005FEFCCF8093F4
:10033000C60008953197F1F70895279A26982E9AC6
:10034000259A81E58CBD089508950895689462F812
:100350000895E89462F80895EF93FF93EE27E82B51
:10036000E92B31F0E6E6FEE03197F1F70197D1F79E
:10037000FF91EF910895C895319600200895726617
:080380006D5F696E69740000F5
:00000001FF
