:100000000C943E0018950000189500000C94C30055
:10001000189500001895000018950000189500002C
:10002000189500001895000018950000189500001C
:10003000189500000C94D300189500001895000046
:1000400018950000189500001895000018950000FC
:1000500018950000189500001895000018950000EC
:1000600018950000189500001895000018950000DC
:100070001895000018950000189500008FEF8DBFAF
:10008000C8EDE0EC4E2E80E18EBFD0E1F0E15F2EB6
:10009000A89584B7082E877F84BF88E1992780932D
:1000A000600090936000EEEFFFE0A0E0B1E08827F1
:1000B0008D933197E9F787E08093C40080E08093C7
:1000C000C50088E18093C10066248AEA809301011B
:1000D0008AEA809302018DE28093030184ED80938C
:1000E000040183E0809305018AEA8093060180E0A1
:1000F00080934101559A00E80093610000E000936D
:10010000610058D0229A2A9A2298809169008F7CA7
:1001100080628093690080E0809380008CE080930F
:10012000810080918100887F8093810080E090E051
:1001300090938500809384008FEF9CE290938900D8
:100140008093880070916F00726070936F0040D050
:100150004AD0A5D08CE08093810078940C94AE00B6
:100160002F933F932FB72F932F912FBF3F912F9115
:1001700008952F933F932FB72F932F912FBF3F9128
:100180002F91089508952F933F934F935F932FB727
:100190002F9375D047FD9AD02F912FBF5F914F912C
:1001A0003F912F9118956BD0EA9A53D083D05AEA99
:1001B00073D0189500E00093C50007E00093C400D9
:1001C00007E008E10093C10006E00093C200089533
:1001D000279A2698259A249A2F9A2E9A2D9A2C9A05
:1001E0000E94A5010895ECE5F4E00E9491010E94AF
:1001F000980149D08AEF90E00E94B40140E857EDA1
:1002000030D042E859E02DD046EA50E42AD046ECFE
:100210005FEF27D044E950EA24D042EC5CEA21D0D9
:100220004AEC51E81ED04EEC54ED1BD044EC53E8A0
:1002300018D048E950E515D04CEC57E112D040EE0B
:1002400050E00FD048EC50E00CD040EC50EC09D01E
:1002500008955D9B02C05D9902C05D9A01C05D98E2
:1002600008952C984EBD06D04EB55EBD03D05EB548
:100270002C9A089500904D0007FEFCCF089540E0B1
:1002800050E0EFDF08954EEF50E0EBDF089540EBD4
:1002900050E0E7DF08D0089548EBE3DF08954EEC27
:1002A00054EDDFDF08954AEC51E8DBDF4AEC53E818
:1002B000D8DF089542E859E3D4DF089542E859ECC5
:1002C000D0DF089542E851E0CCDF0895009141016C
:1002D000073000905F0002FE0CC0039500934101BF
:1002E000A1E0B1E00A95A00F00E0B01F5C91D4DF5F
:1002F0000895A8EAB0E1E1E4F1E00E94E4010E947F
:1003000089010E94980180E080934101EA98DADF38
:100310000895A8EAB0E18D91882311F00CD0FBCFAD
:1003200008950E94C301802D11F005D0FACF0895E1
:100330008DE001D08AE00090C00005FEFCCF8093E4
:10034000C60008953197F1F70895279A26982E9AB6
:10035000259A81E58CBD089508950895689462F802
:100360000895E89462F80895EF93FF93EE27E82B41
:10037000E92B31F0E6E6FEE03197F1F70197D1F78E
:10038000FF91EF910895C895319600200895000FD0
:10039000111F221F331F0895009510952095309549
:1003A0000F5F1F4F2F4F3F4F0895019110810EC0D7
:1003B00001911191219130810BC00191108117FFA2
:1003C00005C03FEF2FEF04C00081112722273327FC
:1003D00037FF03C0E1DF8DE28D93CF93DF93CF92A0
:1003E000DF92EF92AA24BB24CC24DD24EE2440E249
:1003F000CAE0DD2755E093E38881890F87FD9F7070
:1004000083FD907F891B89935A95A9F7C0DFAA1CA9
:10041000BB1CCC1CDD1CEE1C4A9551F7E894EFE0A8
:10042000FF2782910ED0EB30E0F71EF068948A2D02
:100430000CD088278D93EF90DF90CF90DF91CF91F4
:100440000895982F829501D0892F8F70805D26F0B6
:10045000803309F4089568948D93089572666D5FF2
:06046000696E69740000E2
:00000001FF
