:100000000C943E0018950000189500000C94B10067
:10001000189500001895000018950000189500002C
:10002000189500001895000018950000189500001C
:10003000189500000C94C800189500001895000051
:1000400018950000189500001895000018950000FC
:1000500018950000189500001895000018950000EC
:1000600018950000189500001895000018950000DC
:100070001895000018950000189500008FEF8DBFAF
:10008000C8EDE0EC4E2E80E18EBFD0E1F0E15F2EB6
:10009000A89584B7082E877F84BF88E1992780932D
:1000A000600090936000EEEFFFE0A0E0B1E08827F1
:1000B0008D933197E9F787E08093C40080E08093C7
:1000C000C50088E18093C1006624559A00E800933A
:1000D000610000E0009361005DD0229A2A9A229884
:1000E000809169008F7C806280936900EA9A80E049
:1000F000809380008CE08093810080918100887FD4
:100100008093810080E090E090938500809384004C
:100110008FEF90EE909389008093880070916F002C
:10012000726070936F0044D04ED0A6D0B4D0A8D0E7
:100130008CE08093810078940C949C002F933F93E3
:100140002FB72F932F912FBF3F912F9108952F936A
:100150003F932FB72F932F912FBF3F912F9108954A
:1001600008952F933F934F935F932FB72F9380E082
:1001700090E090938500809384005D9870D047FD57
:1001800076D02F912FBF5F914F913F912F9118956E
:100190005D9A189500E00093C50007E00093C40045
:1001A00007E008E10093C10006E00093C200089553
:1001B000279A2698259A249A2F9A2E9A2D9A2C9A25
:1001C0000E9467010895E2E1F3E00E9453010E945A
:1001D0005A0149D08AEF90E00E94760140E857ED3D
:1001E00030D042E859E02DD046EA50E42AD046EC1F
:1001F0005FEF27D044E950EA24D042EC5CEA21D0FA
:100200004AEC51E81ED04EEC54ED1BD044EC53E8C0
:1002100018D048E950E515D04CEC57E112D040EE2B
:1002200050E00FD048EC50E00CD040EC50EC09D03E
:1002300008955D9B02C05D9902C05D9A01C05D9802
:1002400008952C984EBD06D04EB55EBD03D05EB568
:100250002C9A089500904D0007FEFCCF089540E0D1
:1002600050E0EFDF08954EEF50E0EBDF089540EBF4
:1002700050E0E7DF05D008954EEC54EDE2DF08953D
:100280004AEC51E8DEDF4AEC53E8DBDF089542E850
:1002900059E3D7DF089542E859ECD3DF089542E8E7
:1002A00051E0CFDF08950E948501802D11F005D027
:1002B000FACF08958DE001D08AE00090C00005FEDD
:1002C000FCCF8093C60008953197F1F70895279ADF
:1002D00026982E9A259A81E58CBD08950895089553
:1002E000689462F80895E89462F80895EF93FF9394
:1002F000EE27E82BE92B31F0E6E6FEE03197F1F747
:100300000197D1F7FF91EF910895C895319600209C
:0C031000089572666D5F696E69740000EC
:00000001FF
